:020000040800F2
:10000000A017002061360008DD050008DF050008A4
:10001000E1050008E3050008E50500080000000010
:10002000000000000000000000000000E7050008DC
:10003000E905000800000000EB050008ED050008D8
:100040007B3600087B3600087B3600087B360008CC
:100050007B3600087B3600087B3600087B360008BC
:100060007B3600087B3600087B3600087B360008AC
:100070007B3600087B3600087B360008A94F000855
:100080007B3600087B3600087B3600087B3600088C
:100090007B3600087B3600087B3600087B3600087C
:1000A0007B3600087B3600087B3600087B3600086C
:1000B0007B360008575000087B3600087B36000866
:1000C0007B3600087B3600087B3600087B3600084C
:1000D0007B360008E93500087B3600087B360008CF
:1000E0007B3600087B3600087B3600087B3600082C
:1000F0007B3600087B3600087B3600087B3600081C
:100100007B3600087B3600087B3600087B3600080B
:100110007B3600087B3600087B3600087B360008FB
:100120007B3600087B3600087B3600087B360008EB
:10013000DFF80CD005F04CFE0048004745010008F0
:10014000A0170020ADF5247D00252C4603F09EF974
:1001500003F0E8F94FF47A3003F0F8F902F0FDFB10
:1001600000F06BFD41F61F41312004F047FF1021E4
:1001700040F2833000F0D4FC204600F0C6FCFA20A8
:1001800003F0B2F9641CE4B20A2CF5D34FF4FA6020
:1001900003F0AAF9D348006880474FF6FF7A00249D
:1001A000504600F028FDD04F2022D0A33888CDE95A
:1001B00000324FF4784B0126E038CDE9026B00EBBA
:1001C000D0701346C0F34F004FF482720A2102F040
:1001D00010FF4FF01809C9A2A046CDE90029CDE9CA
:1001E00002684B464FF416723C211E2002F001FFBC
:1001F000C4A2CDE90029CDE9026818234FF4167294
:1002000054211E2002F0F5FEC1A2CDE90029CDE95E
:10021000026818234FF416726C211E2002F0E9FECA
:10022000BFA2CDE90029CDE9026818234FF4167268
:1002300084211E2002F0DDFEBDA2CDE90029CDE91A
:10024000026818234FF416729C211E2002F0D1FE82
:100250001F214FF01009BAA2CDE90261CDE90029B2
:1002600078884B46143881B238883222283880B2D8
:1002700002F0BFFEDFF8D08298F80000012800D11C
:100280006D1C01F06CFE10B9B0498D42F2D9AF4936
:100290008D4201D9002507E0012802D0022803D0B1
:1002A00006E044B1641E02E00C2C01D2641CE4B2EE
:1002B0000C2C00D90024A44801260D2C46701DD218
:1002C000DFE804F0E007111D2E3E535C74829AB5FE
:1002D000C800584600F08FFC9D494FF4FC609DA279
:1002E000A1F800A013E04FF4FC6000F084FC9849F2
:1002F00000209DA208801AE002F07BFEC2E01F20D1
:1003000000F079FC924958469CA2A1F800B0CDE9D2
:100310000029CDE902601023C8220A210846EBE734
:10032000002000F068FC8A4999A2A1F800A0CDE95C
:1003300000291023C822CDE9026B0A210846DBE719
:10034000504600F058FC8249002093A20880CDE975
:100350000029CDE9026B0A211023C822084602F0C9
:1003600048FE7948B97981708CE08D4E7B8804A86D
:100370000AEA43013A88D6F800C00CE0DFF820C250
:100380007B883A88DCF800C002FB03F604A80AEA7E
:1003900043010CEB460C834ECDE902106644CDE9D7
:1003A00000620021084602F046FC6BE0DFF8F0C175
:1003B0007B883A88DCF800C002FB03F604A80AEA4E
:1003C00043010CEB860CE6E77B88DFF8D4C13A8862
:1003D0004FF00608DCF800C002FB03F008FB00CC7D
:1003E000704804A90AEA43066044CDE90261CDE9F8
:1003F000000200210846D6E77B88DFF8A4C13A88CE
:1004000004A8DCF800C002FB03F60CEBC60C0AEAF9
:100410004301644ECDE902106644CDE9006200213B
:10042000084602F008FC04A806F076F92AE05046D7
:1004300000F0E1FB00205C4ACDE90260CDE9002933
:100440007B883A88014602F0D4FD3F4800780128B5
:1004500017D017E001F0D9FD54A2CDE90029CDE96C
:10046000026B0A2110236422084602F0C2FD1D48D7
:1004700090F83000000602D501F0D5FE01E001F051
:100480005FFF0024DFF8C08000260C2088F80160A0
:10049000CDE90006B8F80400032300EB8002388899
:1004A0000521233880B200F0B7FD43A10C208DE870
:1004B000430038880C23113880B21822052100F03F
:1004C00027FEB8F8040000EB80013CA005F0B4FC66
:1004D00021463FA005F0B0FCA8F80460204601F0DA
:1004E000B7FDC7E630000020CC000020D2E08186B6
:1004F000BBD5BFC6BCBCBCAFCDC50000B4AEBFDA77
:10050000C6C10000D2BABEA7CFD4CABEC6C10000C1
:10051000D2BABEA7CFD4CABEC4A3BFE900000000B0
:10052000D6C7C4DCCFD4CABED6D5B6CB0000000037
:10053000CFD4CABEBDE2BEF6B7BDB0B80000000061
:10054000BCCCD0F8000000000000002040420F00AA
:100550001C000020C8FDBBF9C9ABCFD4CABEA3A8FC
:10056000BAECC9ABA3A90000C8FDBBF9C9ABCFD495
:10057000CABEA3A8C2CCC9ABA3A90000C8FDBBF9E1
:10058000C9ABCFD4CABEA3A8C0B6C9ABA3A900004B
:10059000BADAC9AB00000000B0D7C9AB0000000058
:1005A000B8000020A0037A00109A0008B4A5C3FE8A
:1005B000B2E2CAD4000000004D530000CBA2CDBC73
:1005C000CAB1BCE4CAC7A3BA2564206D730D0A0082
:1005D00069783D3D3D25640D0A0000007047FEE747
:1005E000FEE7FEE7FEE77047704770477047000080
:1005F0000CB500224C4800920192016841F4803110
:1006000001604FF4A063016801F400310191009989
:10061000491C0091019911B900999942F3D10168DF
:10062000890333D50121019140490A6842F0100243
:100630000A600A6822F003020A600A6842F00202B5
:100640000A604168416041684160416841F48061ED
:100650004160416821F47C114160416841F4E81136
:100660004160016841F08071016001688901FCD539
:10067000416821F003014160416841F0020141609D
:100680004168C1F381010229FAD10CBD01920CBD70
:10069000254810B5016841F0010101604168244A14
:1006A000114041600168234A11400160016821F452
:1006B00080210160416821F4FE0141604FF41F0177
:1006C0008160FFF795FF1C494FF00060086010BD86
:1006D000154A10B55068194B10F00C01184803D09A
:1006E000042901D0082901D0036012E05168536841
:1006F00001F470114FF0020413F4803F04EB9141B8
:1007000002D053689B0301D50E4B00E00B4B5943BD
:10071000016051680A4AC1F30311121D515C02685D
:10072000CA40026010BD00000010024000200240DC
:100730000000FFF8FFFFF6FE08ED00E000127A006F
:100740000800002000093D00FE490022C1F8AC214C
:10075000C1F8A021FC4B1860C1F8B0210120C1F8FC
:10076000B001C1F8A0017047F64910B50122C1F8E7
:10077000AC210023C1F8A031F34C2060C1F8B031A6
:10078000C1F8B021C1F8A02110BD10B5F020FFF7CD
:10079000DBFFC320FFF7E8FFF020FFF7D5FF96202F
:1007A000FFF7E2FF3620FFF7CFFF4820FFF7DCFF1F
:1007B0003A20FFF7C9FF5520FFF7D6FFB420FFF717
:1007C000C3FF0120FFF7D0FFB120FFF7BDFF80205E
:1007D000FFF7CAFF1020FFF7C7FFB520FFF7B4FFF0
:1007E0001F20FFF7C1FF5020FFF7BEFF0020FFF7DB
:1007F000BBFF2020FFF7B8FFB620FFF7A5FF8A2038
:10080000FFF7B2FF0720FFF7AFFF3B20FFF7ACFF7A
:10081000C020FFF799FF8020FFF7A6FF6420FFF7B5
:10082000A3FFC120FFF790FF1320FFF79DFFC22019
:10083000FFF78AFFA720FFF797FFC520FFF784FF88
:100840000920FFF791FFE820FFF77EFF4020FFF728
:100850008BFF8A20FFF788FF0020FFF785FF00202D
:10086000FFF782FF2920FFF77FFF1920FFF77CFFAA
:10087000A520FFF779FF3320FFF776FFE020FFF791
:1008800063FFF020FFF770FF0620FFF76DFF0B20DE
:10089000FFF76AFF0720FFF767FF0620FFF764FFF7
:1008A0000520FFF761FF2E20FFF75EFF3320FFF7E3
:1008B0005BFF4720FFF758FF3A20FFF755FF17204F
:1008C000FFF752FF1620FFF74FFF2E20FFF74CFFD8
:1008D0003120FFF749FFE120FFF736FFF020FFF757
:1008E00043FF0920FFF740FF0D20FFF73DFF0920E0
:1008F000FFF73AFF0820FFF737FF2320FFF734FF09
:100900002E20FFF731FF3320FFF72EFF4620FFF7A1
:100910002BFF3820FFF728FF1320FFF725FF1320B8
:10092000FFF722FF2C20FFF71FFF3220FFF71CFFED
:10093000F020FFF709FF3C20FFF716FFF020FFF73C
:1009400003FF6920FFF710FF3520FFF7FDFE0020B1
:10095000FFF70AFF1120FFF7F7FE782002F0C4FD31
:100960002920FFF7F1FE322002F0BEFDBDE8104065
:100970002120E9E6734910B50122C1F8AC2100231A
:10098000C1F8A031704C2060C1F8B031C1F8B0217D
:10099000C1F8A02110BD10B50C46FFF7D5FE2046CA
:1009A000BDE81040E0E66948C079CDE6401EC0B21F
:1009B000FCD27047F0B5654F05460C46387AFFF714
:1009C000C3FE2E0A3046FFF7CFFEE8B2FFF7CCFE9B
:1009D0003046FFF7C9FEE8B2FFF7C6FE787AFFF7A8
:1009E000B3FE250A2846FFF7BFFEE0B2FFF7BCFEC4
:1009F0002846FFF7B9FEE0B2BDE8F040B4E610B516
:100A00000021082814D2DFE800F00406080A0C0EC2
:100A1000101206200CE007200AE0042008E0052060
:100A200006E0012004E0002002E0032000E00220B4
:100A3000082812D2DFE800F0110406080A0C0E1094
:100A400080210AE0402108E0C02106E0202104E0E6
:100A5000602102E0A02100E0E021362041F0080101
:100A6000FFF799FF394C207AFFF76EFE0020FFF761
:100A70007BFE0020FFF778FE2088401EC0F30F2089
:100A8000FFF772FE2078401EC0B2FFF76DFE607A5D
:100A9000FFF75AFE0020FFF767FE0020FFF764FE15
:100AA0006088401EC0F30F20FFF75EFEA078BDE80F
:100AB0001040401EC0B257E610B51446FFF77AFF4B
:100AC000FFF771FFA0B2BDE8104053E7F0B41F4933
:100AD0002C252A261E4A4FF4A0734FF4F0742B27BE
:100AE00050B1012088710C804B80CD710E724F7215
:100AF0001070F0BCC0B282E7002088710B804C807F
:100B0000CD710E724F720720F2E76FF01801484363
:100B10004FF47A7101EB8000C906A1F840007047DC
:100B20000C4AD36943F00103D361936943F0040392
:100B30009361094A136823F470431360136843F404
:100B400030430BE0000021420C0C0140CC0000209F
:100B50001E00002000100240000801401360F74A08
:100B6000136843F0080313604FF0804290851185AD
:100B7000108C40F480501084D0131080108840F006
:100B8000010010804FF47A70A2F84000908B40F47E
:100B9000E0409083908B40F4006090837047F0B504
:100BA00005461044401E87B2C818DFF894C3401EA3
:100BB00086B20C469CF80800FFF7C6FD280AFFF72E
:100BC000D3FDE8B2FFF7D0FD380AFFF7CDFDF8B24C
:100BD000FFF7CAFD9CF80900FFF7B6FD200AFFF7F2
:100BE000C3FDE0B2FFF7C0FD300AFFF7BDFDF0B274
:100BF000BDE8F040B8E570B50646D148002421466E
:100C000002884388204603FB02F5FFF7C8FFFFF781
:100C1000CAFECC490122C1F8AC210023C1F8A031A1
:100C2000C94805E00660C1F8B031C1F8B021641CC4
:100C3000AC42F7D3C1F8A02170BDF8B501211C204A
:100C400002F0B7FF0121084602F0B3FF0121BF48BF
:100C500002F052FE4FF41946B84FADF80060102470
:100C60008DF8034003250C3F8DF802506946384645
:100C700002F0B7FD3146384602F01DFE6002ADF8C5
:100C800000008DF803408DF802506946B04802F02C
:100C9000A8FD4FF6FF76ADF80060AB488DF8034035
:100CA0008DF8025069460C3802F09BFDA94D0124D5
:100CB000C5F8B4410A2005F5DA7502F015FC0020EC
:100CC0002860142002F010FC2C60142002F00CFCB0
:100CD0009C48C0F8BC41FFF758FD0120FFF7F6FE25
:100CE0003046FFF788FF96499B4A08884988503864
:100CF0003F3901EBD17100EBD070C1F34F01C0F36C
:100D00004F0004F0FBF8F8BD2DE9F0418446A2EB5A
:100D10000C00401C1F460D4686B2DDF8188010E01E
:100D200029466046FFF746FEFFF73DFE002404E03B
:100D30004046FFF71FFE641CA4B2B442F8D36D1CFA
:100D4000ADB2BD42ECD9BDE8F0812DE9F04381465A
:100D5000A2EB0900401C8C4687B2A3EB0C00401CA0
:100D600086B20025DDF81C8015E00CEB050081B291
:100D70004846FFF71FFEFFF716FE002407E005FBBD
:100D8000064138F81100FFF7F5FD641CA4B2BC421F
:100D9000F5D36D1CADB2B542E7D3BDE8F0832DE9C4
:100DA000FC4F0026A2EB000C81465F1A701E3546F0
:100DB0008846BCF1000F02DD4FF0010102E003D1D3
:100DC0004FF00001009102E0CCF1000C0090002FE8
:100DD00002DD4FF0010002E003D14FF00000834636
:100DE00002E08346C7F10007BC4501DD644600E030
:100DF0003C46601C4FF0000A019015E01FFA88F194
:100E00001FFA89F00B9AFFF757FE66443D44A6424D
:100E100002DD0099361B8944A54201DD2D1BD84413
:100E20000AF101001FFA80FA01998A45E6DDBDE862
:100E3000FC8F2DE9F8411D46079C1646884607465B
:100E40000B460094FFF7ABFF3A462B46414610464F
:100E50000094FFF7A4FF2B4632461946384600940B
:100E6000FFF79DFF32462B46414610460094FFF7A0
:100E700096FFBDE8F8812DE9FF4F84460024154612
:100E8000032081B00F46A0EB450652E0781B81B2EB
:100E90000CEB040900901FFA89F0049AFFF70CFE8E
:100EA000A7EB040B0CEB05081FFA8BF11FFA88F077
:100EB000049AFFF701FE07EB040A1FFA8AF11FFAF2
:100EC00088F0049AFFF7F8FD07EB05081FFA88F190
:100ED0001FFA89F0049AFFF7EFFDACEB04091FFA43
:100EE00088F11FFA89F0049AFFF7E6FDACEB0508DC
:100EF0001FFA8AF11FFA88F0049AFFF7DDFD0098C7
:100F0000049A81B21FFA89F0FFF7D6FD1FFA8BF120
:100F10001FFA88F0049AFFF7CFFD641C002E03DA55
:100F200006EB8406B61D04E0601B06EB80066D1E12
:100F30000A36AC42AADD05B0BDE8F08F0C080140CE
:100F4000CC000020000021420C0C014000023000C7
:100F50000010014000002242A67200082DE9F84F5F
:100F600080469C460C468946580700D0012000EB7D
:100F7000DC004FEA5C014843C0B2203A0090D0B296
:100F8000BCF10C0F0AD0BCF1100F3BD1754901EB3D
:100F9000001083460027DFF8D0A130E0734900EB52
:100FA000400001EB8000F4E71BF8076000253006E5
:100FB00001D50B9A03E00A9828B96D48428821466A
:100FC0004046FFF779FD7006060E641CBAF8020071
:100FD000A4B2A04216D9A4EB0900604509D108F1DA
:100FE0000100BAF800101FFA80F84C46414509D9B3
:100FF00003E06D1CEDB2082DD9D37F1CFFB2009821
:101000008742D1D3BDE8F88F0346012000E0584362
:10101000491EC9B2FBD270472DE9FF4F82B080460E
:101020000027DDE90F091D4693463C46BA464608AF
:1010300027E0281B401EC1B20A20FFF7E5FFBBFBDB
:10104000F0F00A21B0FBF1F201FB120027B9691E92
:101050008C4201DA48B101273030C2B2CDE900A993
:1010600006FB048080B20F9B06E0CDE900A906FBD9
:1010700004800F9B80B220220399FFF76FFF641C4E
:10108000E4B2AC42D5D306B056E72DE9FF4F82B0AB
:101090008046DDE910B90F984FF0000A1F4654460C
:1010A0000BF0010546082EE0381B401EC1B20A2095
:1010B000FFF7AAFF0499B1FBF0F00A21B0FBF1F2AF
:1010C00001FB1200BAF1000F05D1791E8C4202DA41
:1010D00050B14FF0010A3030C2B2CDE9005906FBE1
:1010E000048080B20F9B09E0CDE900595FEA0B60F4
:1010F00006FB04800F9B80B208D530220399FFF7CE
:101100002DFF641CE4B2BC42CED3BCE72022F5E73D
:101110002DE9FC4F044600F0FF0910190D46DDE9EA
:101120000B761FFA80F858191FFA80FADDF834B0F0
:1011300012E0444502D3E8194C4685B2554510D219
:101140000021CDE9001B3B4629462046FFF706FF5C
:1011500004EB570084B2761C3278A2F120005E289E
:10116000E7D964E6946C0008CC00002020680008F1
:101170001E0000202DE9F0410024FA4E05462746C6
:101180004FF00108280602D5C6F8888101E0C6F8AC
:1011900088716806050EC6F88071012002F08DF98D
:1011A000C6F88081641CE4B2082CEBD3BDE8F08162
:1011B0002DE9F0470025EB4E2C462F46C6F880510E
:1011C000C6F88851DFF8A0A3CAF8B85106F5C07672
:1011D000FFF7D0FF062002F070F93760012002F01F
:1011E0006CF94FF00108C6F80080404602F065F93E
:1011F0003760B94647464FF6FF78A6F5C07608EA4D
:101200004404C6F88091012002F057F9C6F88071B5
:10121000D6F8040108B1641CA4B26D1CEDB2102D07
:10122000EDD32009CAF8B871BDE8F087FEB50646CF
:1012300000246D463046FFF7BBFF25F81400641C00
:10124000A4B2052CF6D300214C1CA0B20BE035F85B
:10125000113035F81020934203D925F8112025F8D4
:101260001030401C80B20528F1D3A1B20429EBD381
:101270000021012035F81020401C114480B289B2B1
:101280000428F7D30320B1FBF0F0FEBD2DE9F041B7
:10129000B64C07460E462078FFF7C8FF0546607833
:1012A000FFF7C4FFE58020813D80308001207DE78D
:1012B00070B586B00C460546694604A8FFF7E6FF00
:1012C00000282FD001A903A8FFF7E0FF002829D0AC
:1012D000BDF80C30BDF81020934203D803F1320062
:1012E000824205D39A421FD802F1320083421BD2B8
:1012F000BDF80410BDF80000814203D801F13206A8
:10130000B04204D388420FD8323081420CD2D01878
:1013100040082880BDF80000BDF8041008444008CB
:101320002080012006B070BD0020FBE72DE9F843C6
:1013300005468F4816460C46028005F10D000092C6
:1013400082B2193880B20B46FFF729FD04F10D0077
:1013500083B2193881B22A4610460096FFF71FFD66
:10136000671C05F10109B9B21FFA89F03246FFF78F
:10137000A3FBA5F10108B9B21FFA88F03246FFF7C6
:101380009BFB671EB9B21FFA89F03246FFF794FB48
:10139000B9B21FFA88F03246FFF78EFB01B0334630
:1013A00021462846BDE8F0430622FFF764BD2DE93B
:1013B000F04105466E4816460F4602802846FFF764
:1013C0007BFB6C1CA0B232463946FFF775FB7F1CD5
:1013D000B9B232462846FFF76FFBB9B2A0B2324627
:1013E000BDE8F041FFF768BB70B55F49D1F83C112B
:1013F0005E4C0C3441B194F82000010649D520F030
:10140000800084F820004BE00200584800F10C00F6
:1014100000F1160100F10C0002D0FFF749FF24E0B3
:10142000FFF746FF08B3B4F92C0004F0C2F90546F3
:10143000A08904F0C7F9616A04F0CDF8294604F0E8
:1014400072F804F0EAF9A081B4F92E0004F0B1F9C1
:101450000546E08A04F0B6F9A16A04F0BCF8294612
:1014600004F061F804F0D9F9E08294F82000000655
:1014700006D4C02084F82000A089A082E08AE083FE
:10148000A1893CA004F0D8FCE18A3CA004F0D4FC83
:1014900006E00020A082E0834FF6FF70A081E0828A
:1014A00094F8200000F0800070BD38B52F4C354D09
:1014B0000C342946606A04F08EF804F095F9010EA8
:1014C0008DF80010010C8DF80110010A8DF8021042
:1014D0008DF8030004224FF42101684601F02BFB34
:1014E0002946A06A04F077F804F07EF9010E8DF821
:1014F0000010010C8DF80110010A8DF802108DF812
:10150000030004222049684601F015FBA08D022249
:10151000010A8DF800101C498DF80100091D68466C
:1015200001F009FBE08D0222010A8DF80010164936
:101530008DF80100891D684601F0FDFA94F830002D
:1015400011498DF8000001220831684601F0F3FAD4
:101550000A200D498DF8000001220931684601F08A
:10156000EAFA38BD00002142000022422400002097
:101570001C000020783A25640D0A0000793A2564A1
:101580000D0A000020BCBE4C0400A10038B50122A9
:10159000FE49684601F043FA9DF80040FCA0214650
:1015A00004F04AFC0A2C01D00020DAE704224FF4B0
:1015B0002101684601F033FA9DF8000001029DF810
:1015C0000100084301029DF80200084301029DF852
:1015D0000300084304F0EDF8F14D294604F02DF81E
:1015E000F04CEA49042260620939684601F017FAB2
:1015F0009DF8000001029DF80100084301029DF8DA
:101600000200084301029DF80300084304F0D1F8EA
:10161000294604F012F8DD49A0620222491F6846FB
:1016200001F0FDF99DF800009DF80110022241EA49
:101630000020D649A085C91E684601F0F0F99DF842
:1016400000009DF80110012241EA0020CF49E08509
:10165000491E684601F0E3F99DF80000902284F8E5
:101660003000A4F10C01D02310B10A704B7001E0DE
:101670000B704A70012074E72DE9FF4F83B080465C
:1016800010A80F4690E8000EC7494FF47840159C0B
:1016900008801025C5A00095CDE90104C44EA02105
:1016A000282073883288FFF733FDC2A00095CDE96A
:1016B000010473883288A0217820FFF729FDBEA09D
:1016C0000095CDE9010473883288B4212820FFF702
:1016D0001FFDBAA00095CDE9010473883288B421BA
:1016E0007820FFF715FDB6A00095CDE901047388B9
:1016F0003288C8212820FFF70BFDB2A00095CDE964
:10170000010473883288C8217820FFF701FDAEA05C
:101710000095CDE9010473883288DC212820FFF789
:10172000F7FCAAA00095CDE9010473883288DC217A
:101730007820FFF7EDFCA6A00095CDE901047388A1
:101740003288F0212820FFF7E3FCCDE90054042380
:101750004246A0214020FFF75FFCCDE9005404235E
:101760003A46A0219020FFF757FCCDE9005404230E
:10177000B4214020059AFFF74FFCCDE90054042323
:10178000B4219020069AFFF747FCCDE900540423CA
:101790004A46C8214020FFF73FFCCDE9005404230E
:1017A0005246C8219020FFF737FCCDE900540423AE
:1017B0005A46DC214020FFF72FFCCDE900540423DA
:1017C000DC219020139AFFF727FCCDE90054032376
:1017D000F0216020149AFFF71FFC07B0BDE8F08FDE
:1017E0002DE9F04F704F8BB01F2038807A484FF6AC
:1017F000FF76002506802C463046FFF7FCF94FF4B3
:101800007849A7F800903046FFF7F5F973480026AD
:101810003E80016810208DE8430028216423A02227
:101820000846FFF775FC14214A460846FFF77EFD7F
:101830005C48DFF87C8180F820604662594E0120C8
:101840007168884796F820000121B1EB901F47D1BD
:1018500020F0400086F8200006A8B28920F8252054
:1018600000EB85006D1C0024F18AEDB24180012D52
:1018700006D0022D11D0032D1FD0042D30D13BE016
:1018800014214FF6FF720846FFF750FDB8F800002C
:101890004A46143880B2142120E0B8F800004646C9
:1018A000143880B24FF6FF721421FFF73FFD7088A5
:1018B0004A46143881B2142010E0B8F802004646B7
:1018C000143881B24FF6FF721420FFF72FFD708895
:1018D0004A46143881B23088143880B2FFF726FDAA
:1018E0000A2001F001FE641CA4B2B4F57A7FA5D9E8
:1018F000FFF74CFE0BB071E7BDF81800BDF81C10E7
:10190000411A00D54942BDF81A00BDF81E20801AC0
:1019100000D5404249434043084403F058FF04F0D7
:1019200059FF03F08EFF1FFA80FABDF82000BDF8C2
:101930002410411A00D54942BDF82200BDF82620E6
:10194000801A00D5404249434043084403F03FFF1A
:1019500004F040FF03F075FF85B2284603F032FF24
:101960000646504603F02EFF314603F066FE03F0B4
:1019700081FF06460F464FF06632194B03F08EFF8B
:1019800079D3184A184B304639462FE00D00A10094
:1019900074656D706661633D2578200D0A00000056
:1019A00020BCBE4C300000201C00002078313A00E2
:1019B000CC00002079313A0078323A0079323A008E
:1019C00078333A0079333A0078343A0079343A007F
:1019D0006661632069733A00200000208472000869
:1019E0006666EE3FCDCCCCCCCCCCF03F03F06EFFA6
:1019F00048D3BAF1000F45D0EDB3BDF81800BDF8DB
:101A00002010411A00D54942BDF81A00BDF8222025
:101A1000801A00D5404249434043084403F0D7FEB2
:101A200004F0D8FE03F00DFF85B2BDF81C00BDF830
:101A30002410411A00D54942BDF81E00BDF82620E9
:101A4000801A00D5404249434043084403F0BFFE9A
:101A500004F0C0FE03F0F5FE80B203F0B3FE0646CC
:101A6000284603F0AFFE314603F0E7FD03F002FF26
:101A700006460F4600E005E04FF06632FB4B03F0F0
:101A80000DFF24D2B8F80210B8F800001439143849
:101A9000002589B280B24FF6FF72FFF747FC142190
:101AA0004A460846FFF742FC0022F14B30463946D1
:101AB00003F00DFE03F0C5FEBDF8243080B2BDF882
:101AC0002620CDF814900293CDE9032076E0DFF8CC
:101AD000A8A3E84A53463046394603F0F7FED1D36F
:101AE000BDF81C00BDF82010411A00D54942BDF8D0
:101AF0001E00BDF82220801A00D5404249434043D1
:101B0000084403F064FE04F065FE03F09AFE85B21B
:101B1000BDF81800BDF82410411A00D54942BDF89F
:101B20001A00BDF82620801A00D5404249434043A0
:101B3000084403F04CFE04F04DFE03F082FE80B238
:101B400003F040FE0646284603F03CFE314603F013
:101B500074FD03F08FFE06460F464FF06632C34B0E
:101B600003F09CFE06D3C34A53463046394603F081
:101B7000ADFE34D2B8F80210B8F8000014391438A9
:101B8000002589B280B24FF6FF72FFF7CFFB142118
:101B90004A460846FFF7CAFB0022B54B3046394695
:101BA00003F095FD03F04DFEBDF8243080B2BDF882
:101BB0002610CDF814900293CDE90310BDF8221041
:101BC000BDF82000CDE90001BDF81E30BDF81C2095
:101BD000BDF81A10BDF81800FFF74EFD2EE6BDF84F
:101BE0001C00BDF818708246C01B03F0E2FDB8F877
:101BF00000600546A6F1280003F0DBFD294603F04E
:101C00001CFD9E4D834668620AEB070003F0DAFD77
:101C1000594603F0E0FC0746304603F0D3FD394651
:101C200003F0D3FC4FF0FF3103F045FD03F0DCFD82
:101C3000A885BDF82200BDF81A100090401A019145
:101C400003F0B7FDB8F802708246A7F1280003F050
:101C5000B0FD514603F0F1FCA86282460290DDE936
:101C60000001084403F0AEFD514603F0B4FC824687
:101C7000384603F0A7FD514603F0A7FC4FF0FF31B3
:101C800003F019FD03F0B0FDE885584603F0ACFD04
:101C9000002800DA4042022807DC029803F0A4FD85
:101CA000002800DA4042022833DD143F143E0025AC
:101CB000B9B2B0B24FF6FF72FFF738FB14214A46B3
:101CC0000846FFF733FB6E486EA201881020CDE96D
:101CD00000020291B8F80230B8F800201A2128203A
:101CE000FFF716FA654991F8300048B1002081F8F5
:101CF000300038B1614890210C380170D02106E0E5
:101D00000120F4E75D48D0210C380170902141702A
:101D100094E55B4C1F204FF6FF7520802846FEF7A8
:101D20006AFF22885CA110208DE80700B8F8023015
:101D3000B8F800206E212320FFF7EAF94F4C606AC3
:101D400003F098FD02460B4659A004F075F8A06A0E
:101D500003F090FD02460B465AA004F06DF8B4F96A
:101D60002C105DA004F068F8B4F92E105FA004F008
:101D700063F84FF47A7001F0B7FBFFF796FB284643
:101D8000FEF739FFB6E52DE9F84301F05AFA3B4C6E
:101D9000E8B300F064FBD8B30121142001F009FF7F
:101DA0004FF48047ADF800701025DFF854818DF8AE
:101DB000035003268DF802606946404601F011FD8C
:101DC0003946404601F077FD0720ADF800008DF858
:101DD00003504C4D8DF802606946284601F001FD24
:101DE0000721284601F067FD0221ADF800104821C7
:101DF0008DF803106946284601F0F3FC02212846BD
:101E000001F05BFD04F11601A1F10A0001E010E010
:101E100011E0FFF73BFAA4F10C00C18800890143EF
:101E200012D000F09AFDFFF7B1FB98B10120BDE898
:101E3000F883354800E03548606094F8300040F0A1
:101E4000800084F83000F1E7314901200870314802
:101E50006060EBE74FF6FF70FEF7CDFEFFF7C0FCCA
:101E6000FFF723FBFFF792FB0020E0E76666EE3FFB
:101E700000005940CDCCCCCCCCCCF03F3000002081
:101E80001C0000205450204E65656420726561641A
:101E90006A75737421000000546F75636820536382
:101EA0007265656E2041646A757374204F4B210022
:101EB00074705F6465762E786661633A25660D0AF4
:101EC0000000000074705F6465762E796661633A85
:101ED00025660D0A0000000074705F6465762E7838
:101EE0006F66663A25640D0A0000000074705F6436
:101EF00065762E796F66663A25640D0A000000004B
:101F00000010014000080140193300083D25000879
:101F100000000020852600082DE9F041FA4E0C460D
:101F200005467168984617460020884796F82000B5
:101F3000000612D5142001F0D7FAB089E9198842B9
:101F40000BD8A84209D3F08A04EB0801884204D8D0
:101F5000A04202D30120BDE8F0810020FBE72DE97B
:101F6000F047E94D002420466968884795F820002D
:101F7000A5F10C0900063CD5E4488079F0B105F1E3
:101F80003400AE89ED8A4FF00208002100EBC10C4D
:101F900030F83130BCF80470BCF80220BCF806C040
:101FA0001F44BE420DD29E420BD902EB0C039D4250
:101FB00007D2954205D9491CCCB206E0D24844303C
:101FC000DFE7491CC9B24145E0D3DCB1B9F80400F0
:101FD0004946421CA9F80420B0F5FA7F01D9C87817
:101FE00020B9C878A04201D100240BE089F8034051
:101FF00008E099F80310484621B100218180C170A2
:1020000089F802102046BDE8F0877FB54FF6FF70D3
:10201000FEF7F1FD10251F24BDA00095BB4ECDE9B4
:10202000010430882B46183880B2C8220021FFF7FF
:102030006FF80120B7A1CDE90204CDE90015708841
:102040001023143881B23222002000F0D2FF7FBD6D
:102050002DE9FF41B14D01261027AC4C01280DD9C7
:102060002888ACA1CDE90260CDE900176088102373
:10207000143881B23222002000F0BBFF2888A8A1CA
:10208000CDE90260CDE9001760881023143881B2D1
:1020900020883222283880B200F0ABFFBDE8FF81F3
:1020A00008B5002A06D00244521E009392B20B4695
:1020B000FEF72AFE08BD2DE9FF5F80460E4640F27E
:1020C000C32050434FF47A71B0FBF1F702FB02F0EA
:1020D00000EB520B14464FF6FF7000EA4202A8EBE9
:1020E000040080B231467F1C039BFFF7D9FF012516
:1020F00038E005FB05F004FB040159451BD9BC423F
:1021000018D96800A0F10209301981B2A8EB0500C6
:1021100000F1010A1FFA89F21FFA8AF0039BFFF708
:10212000BFFF301B81B21FFA89F21FFA8AF0039BAE
:10213000FFF7B6FF641E4FF6FF7000EA4402701905
:1021400081B2A8EB040A91461FFA8AF0039BFFF7BD
:10215000A7FF701B81B24A461FFA8AF0039BFFF764
:102160009FFF6D1CBD42C4D9BDE8FF9F884201D9C5
:10217000401A00E0081A80B270472DE9FE4F002691
:102180000C9C3546A0424CD3A2424AD3A14248D32C
:10219000A34246D3A2EB000882465F1A701E89460E
:1021A000B8F1000F02DD4FF0010102E003D14FF062
:1021B0000001019102E0C8F100080190002F02DD4A
:1021C0004FF0010002E003D14FF00000009002E068
:1021D000C7F1000700904046B84501DD044600E025
:1021E0003C46601C4FF0000B029017E0DDE90C2329
:1021F0001FFA89F11FFA8AF0FFF75DFF46443D445C
:10220000A64202DD0199361B8A44A54202DD0099EF
:102210002D1B89440BF101001FFA80FB02998B45AD
:10222000E4DDBDE8FE8F2DE9F04F87B00020ADF86A
:102230000800DFF8D4A0DFF8D480ADF80A004FF032
:10224000010B02AF4FF6FF79DAF804105546002073
:1022500088470024AA460BFA04F09AF82010564644
:10226000014263D006EB4405B8F80020A9899142E9
:102270005ED2E98AB8F80200814259D2B189AFF63C
:102280000C5003F0D9FDF18AAFF6105003F0D4FDE5
:1022900037F82410494506D1A88927F8240007EB10
:1022A0008401E88A48802049022007EB840631F83F
:1022B0001410CDE90001EB8AAA89718837F824004F
:1022C000FFF75BFFA98927F82410E88A7080B8F827
:1022D0000030283B994204DD282802D2FFF795FE02
:1022E00026E0491E172923D2B8F8021088421FD2CF
:1022F000183988421CDD4846FEF77DFC0120FFF7B7
:10230000A7FE07B0BDE8F08F30000020CC00002011
:1023100052535400B7B5BBD8000000001C00002089
:10232000BCCCD0F8000000008872000827F8249088
:10233000641CE4B2052C8ED3052001F0D5F883E7A8
:1023400070B5184D184C00206168884794F820003B
:10235000000622D5A0892B889842F4D2E18A6A88A7
:102360009142F0D2183B984204DD102902D2FFF7C7
:102370004CFEE8E7431E172B0AD2183A914207DDBC
:102380004FF6FF70FEF737FCBDE8704001205FE6B6
:102390004FF47842FFF70BF8D5E70A2001F0A4F8D4
:1023A000D1E70000CC000020300000202DE9F041F2
:1023B00015460E460446002700F0BCF9282000F020
:1023C00050FA00F0EFF9200A00F04BFA00F0EAF9B9
:1023D000E0B200F046FA00F0E5F9002408E0305DD4
:1023E00000F03FFA00F0DEF9070003D1641CE4B20C
:1023F000AC42F4D300F0BAF93846BDE8F0812DE9DB
:10240000F04115460F46044600F094F9282000F0EC
:1024100028FA00F0C7F9200A00F023FA00F0C2F908
:10242000E0B200F01EFA00F0BDF900F083F92920B7
:1024300000F017FA00F0B6F900246E1E09E0B4426D
:1024400001D0012000E0002000F033FA3855641C70
:10245000E4B2AC42F3D3BDE8F04100F087B9FEB579
:102460000121102001F0A5FB4FF44044ADF80840D5
:1024700010208DF80B000320834E8DF80A0002A96E
:10248000304601F0AEF92146304601F014FA00F072
:1024900026F97E4D0024C5F8B8410A2005F5DC7503
:1024A00001F022F8012028600A2001F01DF84FF405
:1024B0000045ADF8085028208DF80B0002A93046E1
:1024C00001F08FF92946304601F0F7F9642001F058
:1024D0000BF80422694648F24010FFF790FF8DF890
:1024E000044069466AA003F0A7FC6CA1684603F0AB
:1024F0000CF808B10120FEBD02208DF8000048F262
:102500004005012269462846FFF750FF012269462F
:10251000E81DFFF774FF9DF80010602902D260A04B
:1025200003F08AFC0A2000F0DFFF8DF80040012252
:1025300069462846FFF73AFF0020FEBD2DE9F14F1E
:102540005C4E00244FF00A09307884B0401CC0B2C1
:10255000B0FBF9F209FB1201574DA046307009B1EA
:102560000A2871D248F24E1B012204A95846FFF7EF
:1025700046FF9DF810004FF00007010755D000F00E
:102580000F01062951D2FF2088408DF80800C04372
:1025900040F0C000DFF8248185F820004FF0010AE8
:1025A00095F820100AFA04F0014227D0444804228A
:1025B00001A930F81400FFF722FF98F806009DF8F3
:1025C000051000289DF8040000EB012105EB4400F4
:1025D0001DD0C1829DF806109DF80730B8F8002084
:1025E00001EB0321511A818105EB44002346C18A86
:1025F00000918289194633A003F01EFC641CE4B2EA
:10260000052CCDD3A9894FF0010849B10CE0818197
:102610009DF806109DF8072001EB0221C182E3E737
:10262000E88A08B98DF8107037709DF8100001061F
:102630000AD500F00F00062806D28DF80870012296
:1026400002A95846FFF7B2FE9DF8100000F08F0077
:1026500080280ED195F82000010602D520F08000D8
:1026600005E04FF6FF71A981E98200F0E00085F8EE
:1026700020003078F02801D986F8009005B0404657
:10268000BDE8F08F0020704700100140000022429A
:102690004354502049443A25730D0A003931310022
:1026A00044656661756C74205665723A25640D0A3E
:1026B000000000008400002030000020CC0000203A
:1026C00092720008785B25645D3A25642C795B255D
:1026D000645D3A25640D0A000A2000F0EEBE38B5AC
:1026E0000121042001F065FA0520ADF8000010205A
:1026F0008DF803000320864C8DF8020069462046C1
:1027000001F06FF80521204601F0D5F881480168F5
:102710004FF20F0291430160016843F2030211433B
:102720000160C16841F00201C160C16841F0080167
:10273000C16038BD70B57648016821F470610160F0
:10274000016841F440710160734C0120C4F88801B4
:10275000C4F880010A2004F5C07400F0AEFE002524
:10276000A5600A2000F0A9FE256070BD70B568481C
:10277000016821F470610160016841F440710160F9
:10278000654C0020C4F88001C4F888010A2004F5D3
:10279000C07400F092FE012525600A2000F08DFE35
:1027A000A56070BD70B55A480024016821F47061BD
:1027B0000160016841F400610160574D0126C5F8D0
:1027C0008861304600F079FEC5F88061012000F094
:1027D00074FE07E0641CE4B2FA2C03D9FFF7C6FFCD
:1027E000012070BDD5F808010028F3D1C5F880019B
:1027F00070BD70B5484C0025C4F88051444801684C
:1028000021F470610160016841F440710160C4F815
:1028100088510A2004F5C07400F04FFE01202060AA
:102820000A2000F04AFE256070BD70B53A4C0026C3
:10283000C4F880613648016821F470610160016864
:1028400041F4407101600125C4F888510A2004F563
:10285000C07400F032FE25600A2000F02EFE2660D3
:1028600070BD2DE9F04105462948016821F47061E9
:102870000160016841F440710160274E0027C6F8ED
:1028800080713C464FF00108E809C6F888016806E7
:10289000050EC6F880810A2000F00FFEC6F8807190
:1028A0000A2000F00AFE641CE4B2082CECD3BDE858
:1028B000F0812DE9F047814615480024016821F494
:1028C00070610160016841F400610160124E2546AB
:1028D00027464FF00108C6F880711E2000F0EDFD7C
:1028E000C6F880816006040ED6F8080108B1641CA1
:1028F000E4B26D1CEDB2082DEDD3B9F1000F04D098
:10290000FFF777FF2046BDE8F087FFF78EFFF9E776
:1029100000080140001001400000214270B5F24D56
:102920000024C5F89041902005F5C87500F04BFAD9
:10293000002000F048FA002000F045FA002000F0E6
:1029400042FAFF2000F03FFA44EA0024FF2000F0A2
:102950003AFA20430121296070BD38B501210420D5
:1029600001F027F91020ADF800008DF803000320D6
:10297000DE4C8DF802006946204600F032FF10213F
:10298000204600F098FF00F045FA002000F00EFA13
:10299000FFF7C4FFD6490880A0F5BC41173902D122
:1029A000D4A003F049FA38BD10B5CF4C0020C4F8CC
:1029B0009001052004F5C87400F005FAFF2000F02E
:1029C00002FA0121216010BD70B5C74C00210546F7
:1029D000C4F89011012004F5C87400F0F4F92846F9
:1029E00000F0F1F90120206070BD10B5BE4C002050
:1029F000C4F89001062004F5C87400F0E4F9012041
:102A0000206010BD10B5B84C0020C4F8900104201F
:102A100004F5C87400F0D7F90120206010BD2DE93D
:102A2000F041B14D0646002017460C46C5F890010E
:102A3000032005F5C87500F0C6F9C4F3074000F09F
:102A4000C2F9C4F3072000F0BEF9E0B200F0BBF910
:102A50003946304600F028FA01202860BDE8F081B0
:102A600010B5FFF7A1FFC007FBD110BD2DE9F04164
:102A700015460C460646FFF7B8FF9B4F0020C7F8E7
:102A80009001022000F09FF9C4F3074000F09BF989
:102A9000C4F3072000F097F9E0B200F094F90024A5
:102AA00004E0305D00F08FF9641CA4B2AC42F8D3AE
:102AB0000120C7F89001BDE8F041D1E72DE9F041D0
:102AC0000746C8B2C0F580740E461546A24200D82B
:102AD00014464FF48078224631463846FFF7C6FF49
:102AE000A542BBD0281B2744264485B24446A542B4
:102AF000F1D82C46EFE7B1E770B50403FFF775FF97
:102B0000FFF7AEFF784D0020C5F89001202005F5B5
:102B1000C87500F058F9C4F3074000F054F9C4F345
:102B2000072000F050F9E0B200F04DF901202860D4
:102B3000BDE8704094E72DE9F05FC1F30B06DFF8C4
:102B4000D0810F0BC6F580548A4681461546A242B5
:102B500000D8144639038B464FF480524046FFF7A5
:102B60005EFF002006E0321818F80210FF2903D19A
:102B7000401C80B2A042F6D3A04221D23846FFF7D3
:102B8000BBFF002006E019F800208319401C08F85C
:102B9000032080B2A042F6D359464FF480524046FB
:102BA000FFF78CFFA5420FD0281BA144A2440026AA
:102BB00085B24FF480547F1CA542CBD82C46C9E780
:102BC000224651464846EBE7BDE8F09F10B5FFF7B7
:102BD0000CFFFFF745FF444C0020C4F89001C720CC
:102BE00004F5C87400F0EFF801202060BDE8104043
:102BF00036E710B53C4C0020C4F89001B92004F52C
:102C0000C87400F0E0F801202060BDE81040032007
:102C100000F053BC10B5344C0020C4F89001AB2038
:102C200004F5C87400F0CFF801202060BDE8104022
:102C3000032000F042BC2DE9F05F83463548DDE912
:102C40000C75DDE90A8A00781C461646894628B9C3
:102C50000120FDF73BFF3046264604462346324618
:102C600049465846FDF79BFFFDF79DFE1E49012092
:102C7000C1F8AC010022C1F8A021464614468046A6
:102C80008B46DFF8949018E03A4631462846FFF725
:102C9000C6FE00203E4484465B460BE02918497876
:102CA0000A02295C1143C9F80010C3F8B0C1C3F887
:102CB000B081801CB842F1D3641C5445E4D3174C56
:102CC0000021084663882288FDF769FF11480078D3
:102CD000002807D1A079012804D1BDE8F05F0020C9
:102CE000FDF7F4BE70E7000000002142000801403B
:102CF00086000020D0BEC6ACD0CDBAC55A4232350F
:102D00005651313238415349470D0A0D0A0000002F
:102D1000D6000020020000200C0C0140CC00002056
:102D20002DE9F04301218BB0084600F039FFDFF8B0
:102D30001492484601F05AFA834D00246E1500950E
:102D40008027CDE90246CDE904474FF40058CDE98C
:102D5000084806940794694648460A9401F0B3FA75
:102D6000DFF8E09109F11409484601F03FFA10201C
:102D700002900095CDE90364CDE90574CDE90848DA
:102D80000794694648460A9401F09DFA6E4C012268
:102D90000C3C1146204601F0AFF9012202212046E9
:102DA00001F0AAF90BB00020BDE8F08301466648A7
:102DB0000C38028822F03802028002880A4302801E
:102DC000012101F079B970B55F4D002406460C3D34
:102DD00003E0641CE4B2C82C0FD80221284601F09D
:102DE000D7F90028F5D03146284601F08DF90024A6
:102DF00005E0641CE4B2C82C01D9002070BD01219B
:102E0000284601F0C5F90028F3D0284601F07EF9E4
:102E1000C0B270BD10B586B00121042000F0C9FE1B
:102E20000121080300F0C5FEE020ADF814001820D1
:102E30008DF817000320454C8DF8160005A9204693
:102E400000F0CFFCE021204600F035FD0020ADF879
:102E500000004FF48271ADF80210ADF804000221B9
:102E6000ADF806100121ADF808104902ADF80A10BE
:102E70003821ADF80C10ADF80E00334C0720ADF83A
:102E800010000C3C6946204601F09AF801212046CA
:102E900001F012F9FF20FFF796FF0820FFF786FFE9
:102EA000FFF73EFF06B010BDF8B5264CFF221C3CD4
:102EB0008DF800202162A0626163C4F83CD0206BD1
:102EC00020F0800020631F4D0121284601F025FAE3
:102ED0001C4E01211436304601F01FFA202001F06B
:102EE00034FA0028FAD0202001F03DFA4FF40070A7
:102EF00001F039FA0021284601F00FFA002130468E
:102F000001F00BFA206B40F0800020630020F8BD38
:102F100070B50C4A1C3A5163D0630A4C0121143439
:102F2000204601F0FAF96515284601F00EFA00284E
:102F3000FAD0284601F017FA0021204601F0EDF9F9
:102F4000002070BD1C0002400C3001400008014010
:102F50002DE9F84F83461F4615460C46894658070B
:102F600000D0012000EBD7007843C0B20090102FB2
:102F700003D0182F01D0202F39D1184603F0F4FBCD
:102F80005FEA000A33D001463A46284600F0B3F81B
:102F9000002023E01AF808600025300601D50B9ABE
:102FA00003E00A9828B97448028821465846FDF77C
:102FB00083FD7006641C060EA4B2A4EB0900B8429F
:102FC00005D10BF101004C461FFA80FB03E06D1C9C
:102FD000EDB2082DE1D308F10100C0B2009980469E
:102FE0008842D7D35046BDE8F84F03F095BBBDE803
:102FF000F88F2DE9FE4F0446DDE90C6700F0FF086D
:10300000C8B2029010190D461FFA80FA58194FF0F5
:1030100000091FFA80FB1EE0B9F1000F20D008EB79
:103020000A00C01B4FF00009A04202DAE81985B27D
:10303000444602985844C01BA8420FDBDDE90E014C
:10304000CDE900013B46324629462046FFF780FF86
:10305000E01984B2B61C30780028DDD1BDE8FE8FBF
:10306000802816D94FF00109F5E7544502D3E81935
:10307000444685B25D45EED20F990020CDE90001AE
:103080003B4629462046FDF769FF04EB570084B212
:10309000761C3278A2F120005E28DCD8E5E72DE925
:1030A000FF478046DDE90C761C46154689461046EA
:1030B00002F024FA6108414388B201222F49B84244
:1030C00008D903960095CDE901424B880A88494604
:1030D00040460CE003960095CDE90142381A00EB1A
:1030E000D0704B880A8808EB500080B24946FFF741
:1030F00080FFBDE8FF8730B40C46014615465007F7
:1031000000D0012000EBD5006843C2B208784B78AC
:10311000812809D3402B07D3FF2B05D0FF2803D0EC
:103120007F2B0CD2403B0BE00023184603E05B1CD6
:1031300004F8010BDBB29342F9D330BC7047413B3A
:103140008138D9B2C0B2C0EB401303EB801001EB61
:1031500040000B495043102D096805D0182D08D0A8
:10316000202DEAD1084407490144204630BCFFF72E
:1031700056BC08440449F7E720000020CC0000209A
:10318000B8000020A0FD250080B00B002DE9F04123
:1031900015460E4604460027FFF7CCFAB0480078E3
:1031A000FFF75FFBFFF7FEFA200AFFF75AFBFFF776
:1031B000F9FAE0B2FFF755FBFFF7F4FA002408E054
:1031C000305DFFF74EFBFFF7EDFA070003D1641CFB
:1031D000E4B2AC42F4D3FFF7C9FA3846BDE8F08157
:1031E0002DE9F04115460F460446FFF7A3FA9C4E21
:1031F0003078FFF736FBFFF7D5FA200AFFF731FBEF
:10320000FFF7D0FAE0B2FFF72CFBFFF7CBFAFFF79E
:1032100091FA7078FFF725FBFFF7C4FA00246E1EC1
:1032200009E0B44201D0012000E00020FFF741FB9B
:103230003855641CE4B2AC42F3D3BDE8F041FFF76B
:1032400095BA3EB50121102000F0B3FC4FF4404484
:10325000ADF8084010208DF80B000320814D8DF84B
:103260000A0002A9284600F0BCFA2146284600F0D0
:1032700022FBFFF734FA7C4C0020C4F8B8010A2086
:1032800004F5DC7400F030F9012020600A2000F021
:103290002BF94FF40044ADF8084028208DF80B00BE
:1032A00002A9284600F09DFA2146284600F005FBB9
:1032B000642000F019F94DF20114042269462046F9
:1032C000FFF764FF4DF20425042269462846FFF704
:1032D00087FF9DF80300012803D19DF802004828CC
:1032E00018D05F49B42004220870B52048706946A0
:1032F0002046FFF74BFF042269462846FFF770FF80
:103300009DF80300322803D19DF80200402801D027
:1033100001203EBD00203EBD2DE9F14F504E00245E
:103320004FF00A09B07884B0401CC0B2B0FBF9F28B
:1033300009FB12014D4DA046B07009B10A2873D2A5
:103340004DF2050B012204A95846FFF749FF9DF8ED
:1033500010004FF00007010759D000F00F010629B7
:1033600075D2FF2088408DF80800C04340F0C000AF
:10337000DFF8FC8085F820004FF0010A95F8201056
:103380000AFA04F0014226D03A48042201A930F892
:103390001400FFF725FF98F8060000289DF80400A8
:1033A00022D09DF80610000100EB111205EB44003D
:1033B000C2829DF8072001EB0221B8F80020511AC3
:1033C000818105EB44002346C18A00918289194618
:1033D00029A002F031FD641CE4B2052CCED3A989EA
:1033E0004FF0010871B111E001019DF8060001EBF9
:1033F000101205EB44018A819DF8052062F31F102D
:10340000C882DEE7E88A08B98DF81070B7709DF8B9
:10341000100000F00F00062806D28DF80870012277
:1034200002A95846FFF7B2FE9DF8100000070ED122
:1034300095F82000010602D520F0800005E04FF647
:10344000FF71A981E98200F0E00085F82000B078E2
:10345000F02801D986F8029005B04046BDE8F08F0B
:1034600088000020001001400000224230000020AF
:10347000CC0000209C720008785B25645D3A2564CE
:103480002C795B25645D3A25640D0A0010B56FF058
:10349000040000F03CF9204820490068B0FBF1F03E
:1034A0001F49C0B200EB40020870C2EBC0104FF6DB
:1034B000FF7202EAC000488010BD194909784843EC
:1034C0004FF0E021486100238B61086940F0010062
:1034D00008610869C20701D0C003FAD5086920F065
:1034E000010008618B6170470D49498848434FF0DE
:1034F000E021486100238B61086940F00100086108
:103500000869C20701D0C003FAD5086920F001009C
:1035100008618B61704700000800002000127A00EB
:103520008C00002010B54FF4A06000F0ABF8BDE8AF
:10353000104001F08BBE0000704745490A885206D2
:10354000FCD5434AC1B2121D11807047F0B5064642
:1035500087B0012144F2040000F02BFB3C4D2846CB
:1035600000F076FB6815ADF8100003248DF81240CA
:103570001820384F8DF8130004A9384600F031F9AF
:103580002815ADF8100004208DF8130004A9384662
:1035900000F027F925208DF814008DF815408DF8DE
:1035A000164001208DF8170005A800F070F80021E2
:1035B000ADF80810ADF804100C20ADF80610ADF809
:1035C0000C10ADF80A0000966946284600F070FB22
:1035D000012240F22551284600F0E7FB0121284650
:1035E00000F0D9FB07B0F0BD10B5194C40F22551E1
:1035F000204600F091FC002815D0204600F025FC64
:10360000154AC1B2108803040DD4144B44040BD5E1
:103610000D2915D00A2903D0C0F30D00195414E068
:1036200040F40040108010BD0D2909D0C0F30D04F6
:10363000401C80B219551080C728F4D90020F1E74A
:1036400040F48040C0F30D041955401CEAE7000027
:10365000003801400008014098000020D6100020EA
:103660000648804706480047FEE7FEE7FEE7FEE71C
:10367000FEE7FEE7FEE7FEE7FEE7FEE7910600084D
:10368000310100082849084328490860704730B5CF
:103690000F23C27801780125F2B1244A126801F1A2
:1036A000E02102F4E062C2F5E062120AC2F1040411
:1036B000D3404278A24084781C401443220181F810
:1036C0000024007800F01F018D404009800000F1C7
:1036D000E020C0F8005130BD01F01F0085404809CE
:1036E000800000F1E020C0F8805130BD104A114048
:1036F00001430E48001F016070470C4A121D00294B
:10370000116801D0014300E08143116070474FF020
:10371000E0210428086903D020F004000861704704
:1037200040F00400FAE700000000FA050CED00E0AC
:1037300080FFFF1F8F4910B5884206D10121042068
:1037400000F049FA002104203BE08B49884206D171
:103750000121082000F03FFA0021082031E08749CC
:10376000884206D10121102000F035FA00211020F6
:1037700027E08349884206D10121202000F02BFA5E
:10378000002120201DE07F49884206D101214020F0
:1037900000F021FA0021402013E07B49884206D145
:1037A0000121802000F017FA0021802009E07749EC
:1037B00088420AD184150121204600F00CFA00212C
:1037C0002046BDE8104000F006BA10BD10B501213A
:1037D000084600F000FA0021BDE81040012000F08A
:1037E000FAB9F0B5CC78002204F00F03E40601D555
:1037F0008C7823430C784FF00F0C14F0FF0F4FF030
:10380000010E1BD005680E880EFA02F42640A6426F
:1038100010D196000CFA06F725EA070703FA06F519
:10382000CE783D43282E02D0482E02D002E04461DB
:1038300000E00461521C082AE5D305600A88FF2ACB
:103840001CD94468002202F108060EFA06F50E881B
:103850002E40AE420ED196000CFA06F7BC4303FA96
:1038600006F7CE783C43282E00D14561CE78482E0D
:1038700000D10561521C082AE5D34460F0BD4FF623
:10388000FF710180022181700421C17070470246DE
:10389000002092680A4200D001207047806880B200
:1038A000704702460020D2680A4200D001207047CB
:1038B000C06880B2704701617047416170470AB1CA
:1038C0000161704741617047C160704741F48032C7
:1038D0008261816182618169806970472C4B10B57A
:1038E0001A684FF68074224042EA001008431860BC
:1038F00010BD2849C8617047F0B5254C002801DA91
:10390000E36900E06368450D2E0185B2C0F30157FD
:10391000B540C0F30342032F05D0C6020AD50326E3
:103920009640B34307E023F07062636823F070634E
:10393000636002E0AB4343F0706201B12A430028A8
:1039400001DAE261F0BD6260F0BD10B58A0721F0D6
:1039500003040F49120F21440F238C6893409C43AA
:103960008C608B68904003438B6010BD0949C1F89F
:10397000DC00704700080140000C014000100140CD
:103980000014014000180140001C014000200140CB
:103990000000014000002042A548016841F00101FB
:1039A00001604168A34A114041600168A24A114088
:1039B0000160016821F480210160416821F4FE0169
:1039C00041604FF41F018160704799490A6822F4F1
:1039D00080320A600A6822F480220A60B0F5803FD3
:1039E00007D0B0F5802F03D1086840F4A02008600C
:1039F0007047086840F48030F9E703460020590911
:103A00008B4A01290AD002290AD0516A03F01F0209
:103A1000012393400B4200D0012070471168F5E765
:103A2000116AF3E718B500204FF4A064009031202C
:103A3000FFF7E3FF0099491C0091A14201D0002843
:103A4000F5D03120FFF7D9FF002800D0012018BDA4
:103A5000774A116821F0F80141EAC0001060704710
:103A6000764908607047724B5A68084322F47C120A
:103A70001043586070477149086670476C4A516836
:103A800021F003010143516070476948406800F02C
:103A90000C007047664A516821F0F0010143516003
:103AA0007047634A516821F4E061014351607047F7
:103AB0005F4A516821F4605141EAC000506070478C
:103AC0005B4A0029517A01D0014300E081435172E1
:103AD00070475A49C1F8D8007047554A516821F4D7
:103AE00040410143516070475149002281F8202034
:103AF00081F82020012802D0042802D1052081F875
:103B0000200070474E490860704749490A6A0243DD
:103B10000A6270474A4944390860704730B5444AE0
:103B20005168484B11F00C0103D0042901D0082939
:103B300001D0036012E05168536801F470114FF036
:103B4000020413F4803F04EB914102D053689B03BD
:103B500001D53D4B00E03B4B5943016051680F23B9
:103B600003EA1111394B5C5C0168E1404160546823
:103B7000072505EA14241C5D21FA04F484605468C6
:103B800005EAD4241B5DD940C1605268032303EACF
:103B900092322E4B1B1F9A5CB1FBF2F1016130BDDA
:103BA000234A0029516901D0014300E0814351615A
:103BB00070471F4A0029916901D0014300E0814309
:103BC000916170471A4A0029D16901D0014300E090
:103BD0008143D1617047164A0029D16801D0014361
:103BE00000E08143D1607047114A0029116901D07A
:103BF000014300E081431161704711494039086079
:103C000070470E49C86470470949C8717047084831
:103C1000416A41F0807141627047054A01460020C7
:103C200092680A4200D001207047014988727047AB
:103C3000001002400000FFF8FFFFF6FE00004242C5
:103C40008004424200127A0000093D00A4000020D6
:103C5000C44910B588420AD101218C032046FFF7E0
:103C6000BAFF2046BDE810400021FFF7B4BFBE49AF
:103C7000884202D101214C0410E0BC49884202D1A3
:103C800001218C040AE0BA49884202D10121CC0406
:103C900004E0B84988420AD101210C052046FFF70B
:103CA000A3FF2046BDE810400021FFF79DBF10BDD7
:103CB00030B50446008A85B00D464CF6FF710840C9
:103CC000E98801432182A0894EF6F3110840A988B2
:103CD0002A8911436A8902431143A181A08A4FF6C0
:103CE000FF410840A9890143A1826846FFF716FFFA
:103CF0009C48844201D1039800E00298A1890904FC
:103D000000EBC00101EB0010296801D5490000E07B
:103D10008900B0FBF1F06422B0FBF2F109010B095C
:103D20006FF018056B4300EB8300A3891D044FF06F
:103D3000320306D503EBC000B0FBF2F000F0070041
:103D400005E003EB0010B0FBF2F000F00F000843B9
:103D5000208105B030BD4FF41651016000218180F3
:103D6000C18001810C2242818181704710B5028A95
:103D70004FF2FF031A400B884C8823438C88C98874
:103D80000C4323431343038210BD00210180418073
:103D90008180C18070470029818902D041F400519F
:103DA00001E021F400518181704710B5C1F3421345
:103DB00001F01F040121A140012B07D0022B07D0E5
:103DC0001430002A026805D00A4304E00C30F8E7FA
:103DD0001030F6E78A43026010BD002A828A01D0C3
:103DE0000A4300E08A4382827047028A22F00F026F
:103DF0000282028A0A4302827047828922F40062A8
:103E0000828182890A43828170470029818902D098
:103E100041F0020101E021F0020181817047028A34
:103E200022F020020282028A0A430282704700299D
:103E3000018A02D041F4804101E021F480410182F5
:103E40007047C1F30801818070478088C0F3080083
:103E50007047818941F0010181817047028BD2B2A4
:103E60000283028B42EA012101837047028B02F434
:103E70007F420283028B0A43028370470029818AB2
:103E800002D041F0200101E021F020018182704741
:103E90000029818A02D041F0100101E021F01001D7
:103EA000818270470029818A02D041F0080101E037
:103EB00021F00801818270470029818902D041F4F4
:103EC000004101E0C1F30E01818170470029818A20
:103ED00002D041F4006101E021F400618182704769
:103EE000828A22F004028282828A0A438282704796
:103EF0000029818A02D041F0020101E021F0020193
:103F0000818270470246002012880A4200D00120B8
:103F10007047C9430180704770B501F01F05012645
:103F20000024C1F3421306FA05F2012B0FD0022B35
:103F30000FD0838A4FEA11210088134206FA01F656
:103F400000EA060001D000B10124204670BD83893B
:103F5000F0E7038AEEE70A0A01219140C943018094
:103F60007047000000380140004400400048004015
:103F7000004C004000500040994910B588420AD1D9
:103F8000841401212046FFF726FE2046BDE810409C
:103F90000021FFF720BE9349884202D10121041479
:103FA00004E0914988420AD10121C4132046FFF759
:103FB0001BFE2046BDE810400021FFF715BE10BDD6
:103FC00030B502884C8802F441530A88CD882243D8
:103FD0008C882C4322430C8922434C8922438C89B0
:103FE0002243CC8922431A430280828B22F400624E
:103FF0008283098A018230BDF0B505460C46022055
:104000000021AA8B85B001264FF240031A40AA83F3
:104010002884AF8BA268022A21D0A08800B1022692
:104020006846FFF77BFDE1880098B1F5007F2CD052
:104030007101B0FBF1F000EB8000A1684000B0FB23
:10404000F1F0401D80B20A21B0FBF1F000F0010157
:10405000401A4FF6FF72C0F34F0002EA0121821EA0
:10406000FE2A01D302200021E288084302432A8469
:1040700020886188A2890843A188114308433843F6
:1040800040F40060A88305B0F0BD000AD3E700212A
:10409000018041808180C180018141818181C18114
:1040A0000721018270470021018041808180C18009
:1040B00002228260818170470029018802D041F08C
:1040C000400101E021F04001018070470029818B0F
:1040D00002D041F4806101E021F480618183704766
:1040E000090901238B40002A828899B201D00A4332
:1040F00000E08A4382807047002A828801D00A4308
:1041000000E08A43828070478181704780897047D0
:10411000A1F57E420188FF3A02D041F4807101E0AE
:1041200021F48071018070470029818802D041F01C
:10413000040101E021F0040181807047028822F42B
:104140000062028002880A4302807047018841F4BD
:104150008051018070470029018802D041F400514C
:1041600001E021F4005101807047012901D0008B4A
:104170007047808A7047008A7047B1F5804F018888
:1041800003D021F480410180704741F48041FAE777
:104190000246002012890A4200D001207047C9431C
:1041A0000181704730B501F00F030125024605FA81
:1041B00003F40020A3B2090905FA01F49188A4B21E
:1041C000128921401A4202D0002900D0012030BDBE
:1041D00001F00F0201219140C943018170470000A5
:1041E0000030014000380040003C004001684FF6BC
:1041F000FE72114001600021016041608160C16078
:104200006A496A4A0839904203D1486840F00F0071
:1042100006E0664A1432904204D1486840F0F0004B
:1042200048607047614A2832904203D1486840F4A0
:104230007060F5E75D4A3C32904203D1486840F433
:104240007040EDE7594A5032904203D1486840F43B
:104250007020E5E7554A6432904203D1486840F443
:104260007000DDE7514A7832904203D1486840F04F
:104270007060D5E74E4A111F904203D1086840F0A4
:104280000F0006E04A4A1432904204D1086840F018
:10429000F00008607047464A2832904203D108680F
:1042A00040F47060F5E7424A3C32904203D108681E
:1042B00040F47040EDE73E4A50329042EAD108683F
:1042C00040F47020E5E730B5026847F6F0739A4392
:1042D0000C6A8B682343D1E904452C4323438C6942
:1042E0002343CC6923434C6A23438C6A23431343FF
:1042F0000360CA6842600A6882604968C16030BD74
:104300000021016041608160C160016141618161A2
:10431000C16101624162816270470029016802D077
:1043200041F0010102E04FF6FE721140016070475A
:10433000002A026801D00A4300E08A430260704705
:1043400041607047406880B2704702460020D1004B
:1043500002D51749083901E01449083909681142A2
:1043600000D001207047C10003D51149091F086022
:1043700070470E4908394860704702460020D10056
:1043800002D50B49083901E008490839096811428A
:1043900000D001207047C10003D50549091F0860FE
:1043A0007047024908394860704700000800024021
:1043B00008040240F94910B5884202D10121C41411
:1043C00086E0B0F1804F09D0F54988420DD1012136
:1043D0000220FFF709FC0021022064E001210846C9
:1043E000FFF702FC002101205DE0EE49884206D182
:1043F00001210420FFF7F8FB0021042053E0EA49E3
:10440000884206D101210820FFF7EEFB0021082099
:1044100049E0E649884206D101211020FFF7E4FB7C
:10442000002110203FE0E249884206D101212020EE
:10443000FFF7DAFB0021202035E0DE49884202D177
:104440000121441444E0DC49884202D10121CC041A
:104450003EE0DA49884202D101210C0538E0D84912
:10446000884202D101214C0532E0D649884206D16A
:1044700001214020FFF7B8FB0021402013E0D24982
:10448000884206D101218020FFF7AEFB0021802069
:1044900009E0CE4988420AD1841501212046FFF760
:1044A000A3FB00212046BDE81040FFF79DBBC84993
:1044B000884202D101210C040AE0C649884202D197
:1044C00001214C0404E0C44988420AD101218C0432
:1044D0002046FFF780FB2046BDE810400021FFF793
:1044E0007ABB10BD30B50288AC4CB24DA0420DD0A5
:1044F000A8420BD0B0F1804F08D0A94B984205D00C
:10450000A84B984202D0A84B984203D122F07003E6
:104510004A881A43A54B984206D0A54B984203D02F
:1045200022F44073CA881A4302808A8882850A88E6
:104530000285A0420AD0A84208D0A54A904205D0E0
:10454000A44A904202D0A44A904201D1097A01863D
:104550000121818230BD30B5028C22F0010202843B
:10456000028C8388048B22F0020224F073050C88ED
:104570002C430D8915434A882A43884DA8420BD005
:104580008C4DA84208D0924DA84205D0914DA8422A
:1045900002D0914DA8420DD122F008054A8923F49A
:1045A00040732A4322F004058A882A438D891D43DB
:1045B000CB892B4383800483C9888186028430BDE4
:1045C00070B5028C22F010020284028C8388048B66
:1045D0000D8824F4E6464FF6FF7404EA05253543BA
:1045E0000E8922F0200204EA061616434A8804EADD
:1045F00002123243694EB04202D06E4EB04215D123
:1046000022F080064A8923F4406304EA021232430E
:1046100022F040068A8804EA021232438E8904EAB4
:1046200086061E43CB8904EA8303334383800583D4
:10463000C9880187028470BD70B5028C22F4807233
:104640000284028C8388848B0D8824F073042543B4
:104650000E894FF6FF7422F4007204EA0626164310
:104660004A8804EA022232434C4EB04202D0514EF4
:10467000B04215D122F400664A8923F4405304EA7B
:104680000222324322F480668A8804EA02223243FC
:104690008E8904EA06161E43CB8904EA03133343CA
:1046A00083808583C9888187028470BD70B5028C40
:1046B00022F480520284058C8288838B0C8823F438
:1046C000E6464FF6FF7303EA0424344325F400560C
:1046D0000D8903EA053535434E8803EA06362E4335
:1046E0002E4DA84202D0334DA84205D122F4804578
:1046F0008A8903EA82122A4382808483C988A0F8C7
:104700004010068470BD828B22F440628283828BCB
:104710004FF6FF7303EA01210A4382837047828BBD
:1047200022F00C028283828B0A4382837047028BC1
:1047300022F440620283028B4FF6FF7303EA0121E9
:104740000A4302837047F0B5048C24F010040484FB
:10475000078B048C4FF6FF7527F4734705EA033384
:104760003B4305EA02221A430C4B05EA0116984224
:104770000ED0104B98420BD0B0F1804F08D0084BB0
:10478000984205D0074B984202D0074B984225D15A
:1047900024F02001314341F0100124E0002C0140BD
:1047A0000004004000080040000C004000100040E1
:1047B0000014004000340140004C01400050014012
:1047C0000054014000180040001C00400020004040
:1047D00000400140004401400048014024F0A00393
:1047E0000B4343F0100102830184F0BD028B22F0E1
:1047F0000C020283028B0A430283704770B5048C5B
:1048000024F001040484058B048C4FF6FF7606EA3D
:104810000313134325F0F305F84A2B4390420ED0BF
:10482000F74A90420BD0B0F1804F08D0F54A904241
:1048300005D0F54A904202D0F44A904202D124F0C9
:10484000020201E024F00A020A4342F0010103835C
:10485000018470BD2DE9F84F0D4604460888E74FE6
:10486000DFF89CC3DFF89C83DFF89C934988AA8813
:104870002B894FF0804A48B304282FD04FF6FF769B
:104880000828934632D0208C9E4620F48050208405
:10489000A38B208C06EA0132009223F4734306EACC
:1048A0000B221A4306EA0E331343BC420AD0644576
:1048B00008D0544506D0444504D04C4502D0D34AD4
:1048C000944242D120F40050009940E02046FFF786
:1048D00095FFE9882046BDE8F84F87E72046FFF7B7
:1048E00032FFE9882046BDE8F84F20E7208C20F40D
:1048F00080702084B4F81CE0208C06EA031306EADA
:1049000001222EF0F30E43EA0B0343EA0E0300925A
:10491000BC420AD0644508D0544506D0444504D072
:104920004C4502D0B94A944203D120F4007000995A
:1049300001E020F42060084340F48070A3832084C9
:10494000E9882046BDE8F84FE9E620F40240084334
:1049500040F48050A3832084E9882046BDE8F84FC6
:10496000D1E62DE9F0410C4600264988074601258D
:1049700001B90226A288012A00D1022520882389B4
:104980000028384610D0FFF7DEFEE1883846FFF7F2
:10499000CEFE23892A4631463846FFF72FFFE188AD
:1049A0003846BDE8F04121E7FFF728FFE1883846A7
:1049B000FFF71CFF23892A4631463846FFF7C3FE1E
:1049C000E1883846BDE8F041B1E610B50A884B8869
:1049D000CC881A438B8823431A430B891A434B898B
:1049E00089891A430A43A0F8442010BD4FF6FF718D
:1049F000818000210180C1804180017270470021C7
:104A0000018041808180C180018141818181C1819A
:104A1000704700210180418001228280C180018194
:104A200070470021018041808180C18001814181E6
:104A3000818170470029018802D041F0010101E025
:104A400021F0010101807047002930F8441F02D095
:104A500041F4004101E0C1F30E0101807047002ADA
:104A6000828901D00A4300E08A43828170478182B3
:104A700070471143A0F848107047002A828901D07E
:104A80000A4300E08A4382817047018921F00701CF
:104A900001817047028922F070020A430281704747
:104AA00000B50346FFF7F6FF188940F007001881AC
:104AB00000BD70B516460D46602904464FF0010250
:104AC00031460AD0FFF79AFE29462046FFF7E2FF5B
:104AD000208940F00700208170BDFFF734FEF3E726
:104AE00030B504894FF6FF7505EA03231343E4B29A
:104AF0000B432343038130BD10B50446FFF7F0FF9D
:104B0000208940F07700208110BD10B50446FFF7E2
:104B1000E7FF208940F48040208110BD018582821A
:104B20007047028822F070020A430280704770B515
:104B30000589048B068C25F007050D434FF6FC41D3
:104B40000C4040F201110C434FF6FF7101EA0311D2
:104B500026F022061143314305810483018470BD90
:104B6000028B22F070020A4302837047028B4FF6D9
:104B7000FF7322F4E04203EA0121114301837047ED
:104B8000828B22F070020A4382837047828B4FF639
:104B9000FF7322F4E04203EA01211143818370474D
:104BA0000029018802D041F0800101E021F080015C
:104BB000018070470029818802D041F0040101E0A2
:104BC00021F00401818070470029818802D041F0E2
:104BD000080101E021F008018180704700298188E7
:104BE00002D041F0010101E021F001018180704714
:104BF000028B22F008020A4302837047002C014016
:104C0000003401400004004000080040000C004057
:104C1000028B4FF6FF7322F4006203EA0121114375
:104C20000183EAE7828B22F008020A438283E4E7E9
:104C3000828B4FF6FF7322F4006203EA01211143D5
:104C40008183DAE7028B22F004020A430283D4E76D
:104C5000028B4FF6FF7322F4806203EA01211143B5
:104C60000183CAE7828B22F004020A438283C4E7ED
:104C7000828B4FF6FF7322F4806203EA0121114315
:104C80008183BAE7028B22F080020A430283B4E7F1
:104C9000028B4FF6FF73C2F30E0203EA01211143A8
:104CA0000183AAE7828B22F080020A438283A4E771
:104CB000828B4FF6FF73C2F30E0203EA0121114308
:104CC00081839AE7028C22F002020A43028494E76D
:104CD000028C22F008020A4302848EE7028C4FF60F
:104CE000FF7322F0200203EA01111143018484E7DB
:104CF000028C4FF6FF7322F0800203EA0111114388
:104D000001847AE7028C4FF6FF7322F4007203EA03
:104D100001211143018470E7028C4FF6FF7322F4E6
:104D2000006203EA01211143018466E7028C4FF619
:104D3000FF7322F4005203EA0131114301845CE75E
:104D400010B50123048C8B409C430484038C8A405F
:104D50001343038410BD10B50423048C8B409C4383
:104D60000484038C8A401343038410BD30B50124AE
:104D7000058C00F118038C40A543058489B10829EE
:104D80000FD0091FC1F34E001844016821F4E0411F
:104D9000016001684FF6FF7303EA022211430160CC
:104DA00030BD03EB5100016821F070010160016822
:104DB000F4E70029018802D041F0020101E021F06E
:104DC0000201018019E70029018802D041F00401A5
:104DD00001E021F0040101800FE70029818802D061
:104DE00041F0800101E021F08001818005E7028827
:104DF00022F00802028002880A430280FDE68288CF
:104E000022F07002828082880A438280F5E602895D
:104E100022F00702028102890A430281EDE602893B
:104E200022F08002028102890A430281E5E6818440
:104E3000E3E68185E1E68186DFE60187DDE68187BD
:104E4000DBE6A0F84010D8E6028822F44072028027
:104E500002880A430280D0E6808ECEE6008FCCE640
:104E6000808FCAE6B0F84000C7E6808CC5E6008DAA
:104E7000C3E602460020128A0A4200D00120BCE6A6
:104E8000C9430182B9E602460020138A92890B4287
:104E900002EA010202D0002A00D00120ADE6C94397
:104EA0000182AAE60A7818B1487840EA02207047E1
:104EB000487842EA002070472DE9F0411C46DDE9C0
:104EC00006751646FBF76BFEFBF76DFD6643002487
:104ED00007F0100707E029463846FFF7E3FFFBF726
:104EE00049FD641CAD1CB442F5D30A480021438837
:104EF0000288BDE8F0410846FBF751BE1CB502F13F
:104F000008041378CDE9003493885288FFF7D4FF62
:104F10001CBD0000CC00002030B58DB005460C460D
:104F200001210846FEF73CFE0021FE48FFF7F5F997
:104F3000FC48FFF75BF9FC480290039500200490C1
:104F400005940690802007900020089009900A9010
:104F50004FF480500B9000200C9002A9F148FFF70D
:104F6000B2F90F208DF8040003208DF805008DF8AC
:104F7000060001208DF8070001A8FEF788FB01223A
:104F80004021E948001FFEF728FF4FF47020FFF78B
:104F9000EAF901220221E348FFF7CAF90121E148B9
:104FA000FFF7BBF90DB030BD10B54FF40030FFF77F
:104FB000F2F90120DD490870DD480078401CDC4929
:104FC00008700846007801280AD10221D948FFF765
:104FD000A3FF0120D84908700020D84908700CE0D0
:104FE0000020D34908700221D548FFF795FF002023
:104FF000D14908700120D149087010BD7FB5054620
:105000000C4601210220FEF7DDFDADF80850ADF899
:1050100004400020ADF80A00ADF8060001A9C94817
:10502000FFF760FA01221146C648FFF718FD1D2060
:105030008DF8000000208DF8010003208DF802009B
:1050400001208DF803006846FEF721FB0121BD48D1
:10505000FFF7F0FC7FBD10B50121BA48FFF713FF41
:1050600058B10121B748FFF71AFFB748007820B1BF
:10507000B6480088401CB549088010BD70B504468C
:10508000DDE9045660181044184428443044C0B286
:1050900070BD2DE9FF410026ADA000F0CDFECAE0B5
:1050A0003046761CB749884201D9BDE8FF81B64831
:1050B000008800F40040002878D00020B249088021
:1050C000B2480078402871D1B048407804287ED199
:1050D000AE484079AD490979AC4FCDE90010FB7875
:1050E000BA7879783878FFF7C9FF394689798842E4
:1050F0006DD1384680781A2860D10422152103A882
:10510000FDF78DFC9DF80C4024029DF80D00044332
:1051100024029DF80E00044324029DF80F0004436E
:105120000422252103A8FDF77AFC9DF80C502D02DE
:105130009DF80D0005432D029DF80E0005432D023C
:105140009DF80F00054392A000F076FE200E8DF82A
:105150000C00200C8DF80D00200A8DF80E00E0B236
:105160008DF80F000422152103A8FDF7E4FC280E9A
:105170008DF80C00280C8DF80D00280A8DF80E0013
:10518000E8B28DF80F000422252103A8FDF7D3FC17
:1051900002216B48FFF7C0FE41F61F4140F2E730A5
:1051A000FFF72CFF85A000F047FE00E00FE089A08C
:1051B00000F042FE0A20FBF7A8FC002600207349FD
:1051C000087048708870C8700871487188715748B5
:1051D000007801282FD1002084A11022CDE90021E0
:1051E000029086490988A1F1780707EBD771C1F3CE
:1051F0004F000C239622C821FBF78AFF00260020CF
:105200004A4908704C480078012805D102227C48A0
:1052100001684B48FDF752FC48480078012805D149
:105220000222774801684348FDF748FC744800684B
:10523000801C7349086033E7012080F3138800BFA6
:1052400070487149086000BF00BFFDE7FEB54FF42C
:105250007A30FEF77BF9FDF780FB0422152102A8C6
:10526000FDF7DDFB9DF8084024029DF8090004438A
:1052700024029DF80A00044324029DF80B00044315
:105280000422252102A8FDF7CAFB9DF808502D0233
:105290009DF8090005432D029DF80A0005432D02E3
:1052A0009DF80B0005435948844203D15848854274
:1052B00000D1FEBDFBF7C1FC102140F28330FBF7AB
:1052C0002FFC0A20FBF721FC10E14FF47840FBF79C
:1052D00092FC4FF47A70FEF707F94FF4FC60FBF78D
:1052E0008AFC4FF47A70FEF7FFF81F20FBF783FC6F
:1052F0004FF47A70FEF7F8F82348008800F4004075
:105300000028E1D00020204908802048007840286B
:10531000DAD11E4840780428D6D11C4840791B4970
:10532000097977E0580002400438014090000020DD
:10533000BC00002095000020910000209200002079
:105340009300002000040040010000200400002021
:10535000B7A2CBCD20343020303420314120303042
:10536000203031203030203546203044203041205C
:10537000C6F4B6AF464C53415348B8FCD0C20D0AF0
:1053800000000000804A5D0598000020D610002033
:10539000D5FDD4DAB2C1B3FDD5FBBFE9464C4153CC
:1053A000482CB9FDB3CCB4F3B8C5D2BBB7D6D6D36D
:1053B0002E2E2E2E2E2E200D0A000000D5FBBFE92A
:1053C000464C415348B2C1B3FDCDEAB3C9210D0AE1
:1053D00000000000C7EBB4F2BFAAD0E8D2AACFC247
:1053E000D4D8B5C4CEC4BCFE0D0A00005570677297
:1053F0006164696E672E2E2E2E2E2E00CC000020AA
:10540000B80000200400FA050CED00E0DDCCBBAADA
:1054100008521413364FCDE90010FB78BA7879782A
:105420003878FFF72BFE3946897988425ED13846B5
:1054300080781B2851D12F4E300E8DF80800300C8B
:105440008DF80900300A8DF80A00F0B28DF80B00D3
:105450000422152102A8FDF76EFB274E30168DF8A9
:105460000800300C8DF80900300A8DF80A00F0B2FF
:105470008DF80B000422252102A8FDF75CFB042215
:10548000152102A8FDF7CBFA9DF8084024029DF8EB
:105490000900044324029DF80A00044324029DF8F5
:1054A0000B0004430422252102A8FDF7B8FA9DF859
:1054B00008502D029DF8090005432D029DF80A00B1
:1054C00005432D029DF80B0005430A48844204D190
:1054D0003046854201D1FFF7AFFE00200449087035
:1054E00048708870C870087148718871EDE60000D6
:1054F000D6100020DDCCBBAA08521413421C10F8B1
:10550000011B0029FBD1801A704710B5002200E072
:10551000521C835C8C5CA34201D1002BF8D1D8B221
:10552000E1B2401A10BDF0B480EA0102D40F42008B
:10553000B2EB410F02D20246084611464A0042D061
:10554000C30DDDB2C1F3C752AD1A202D35DAC1F358
:10555000160141F4000204B15242C5F1200602FADC
:1055600006F12A411044B3EBD05F23D0C4B1012D22
:10557000A0EBC35009DCF0BC4FF0004202EAC3527A
:10558000DBB200F5000000F019BA400000F18070B5
:1055900000EBC350A0F1807040EAD170490009E0EF
:1055A000490841EAC071A0EBC35000F50000400873
:1055B00000EBC350F0BC00F0F8B96142012202EBED
:1055C0004101001BF6E7F0BC704781F00041AAE7FB
:1055D00080F00040A7E780EA010210B502F0004326
:1055E000400022D04A001FD0010E01EB1261C0F32F
:1055F0005600C2F3560240F4000042F40002A0FB41
:10560000022000047F39140400D0401C50EA1240EC
:1056100001D44000491EC2B20C0604EBD010401C5D
:105620004008802A02D003E0002010BD20F00100D5
:10563000002900DA0020184310BD30B480EA0102CE
:1056400002F0004530F0004221F0004013D090B14C
:10565000C30DD40DC2F31601C0F31600E41A41F4D1
:10566000000140F400027D34914201D3641C00E04B
:105670004900002C02DA30BC002070474FF40000D3
:105680000023914201D3891A034340084FEA4101A4
:10569000F7D151B1914202D14FF0004105E002D261
:1056A0004FF0010101E06FF0010103EBC450284409
:1056B00030BC00F07AB9420005D0C0F3C752524264
:1056C000914201DC0020704700EBC15070472DE98A
:1056D000FE4F81EA030404F0004421F000410094ED
:1056E0004FF0000B23F0004350EA01045ED052EA71
:1056F00003045BD0C3F30A54C1F30A552C44A4F24B
:10570000F3340194A0FB0254C1F3130141F480115E
:10571000C3F3130343F4801301FB024400FB034E65
:10572000840A970A44EA815447EA8357A4FB07682E
:1057300002958D0A05FB07854FEA932C04FB0C5458
:105740002705029D4FEA065847EA1637B5EB0805CC
:105750006EEB070C870E920E47EA811742EA83121E
:10576000A7FB0201B6EB0B0164EB00042B0D43EA2F
:105770000C335E1844EB1C50DA465146E7FB02013D
:10578000C5F313044FEA0B3343EA14534FEA0432D0
:10579000019C43EA0603A4F10C040294009CCDE9A9
:1057A00000B400F048F903B0BDE8F08F00200146D6
:1057B000F9E7C10F80EAE0700844CA079623002188
:1057C00000F0FCB896230022114600F0F7B80EB5A1
:1057D00040F2334102910021CDE900110A460B4607
:1057E00000F029F903B000BD00F0004220F00040B5
:1057F000C10DC0F3160040F400007F2901DA00203B
:105800007047962903DCC1F19601C84001E0963942
:105810008840002AF4D04042704720F00040C10D7B
:10582000C0F3160040F400007F2901DA0020704721
:10583000962903DCC1F19601C8407047963988402B
:105840007047C1F30A5210B5C1F3130140F2FF33A0
:1058500041F480119A4201DA002010BD40F2334336
:105860009A42A2F2334203DC524200F08EF810BD9D
:10587000904010BD00F0004230F000400AD0C10D51
:1058800001F56071C0F3160042EA0151C2084007F9
:1058900011437047002001467047000030B5041ED8
:1058A00071F1000404DB4FF00044404264EB01015D
:1058B000141E73F1000405DB1C464FF000435242F6
:1058C00063EB04038B4208BF824230BD30B5041E37
:1058D00071F1000404DB4FF00044404264EB01012D
:1058E000141E73F1000405DB1C464FF000435242C6
:1058F00063EB0403994208BF904230BD30B50B46BC
:10590000014600202022012409E021FA02F59D42EF
:1059100005D303FA02F5491B04FA02F52844151EC3
:10592000A2F10102F1DC30BD2DE9F05F0546002057
:1059300092469B4688460646814640241BE0284600
:1059400041464746224600F020F853465A46C01AC0
:10595000914110D311461846224600F04BFA2D1AF9
:1059600067EB01084F4622460120002100F042FA71
:1059700017EB00094E41201EA4F10104DFDC48466C
:1059800031462A464346BDE8F09F202A04DB203AF0
:1059900021FA02F00021704721FA02F3D040C2F14F
:1059A000200291400843194670470029A8BF70475C
:1059B000401C490008BF20F00100704710B4B0FA45
:1059C00080FC00FA0CF050EA010404BF10BC7047E0
:1059D00049B1CCF1200421FA04F411FA0CF118BFFA
:1059E000012121430843A3EB0C01CB1D4FEA0061C9
:1059F0004FEA102042BF002010BC704700EBC3509C
:105A000010440029A4BF10BC7047401C490008BFC7
:105A100020F0010010BC704710B5141E73F1000493
:105A200008DA401C41F1000192185B411A4301D190
:105A300020F0010010BD2DE9F04D92469B4611B1BA
:105A4000B1FA81F202E0B0FA80F22032904600F022
:105A5000D1F904460F4640EA0A0041EA0B015346D9
:105A60005A46084313D0114653EA010019D0C8F131
:105A700040025046FFF789FF05460E4650465946FC
:105A8000424600F0B7F9084305D0012004E0204663
:105A90003946BDE8F08D0020054346EAE0762C4308
:105AA00037430A986305E40AA0EB08000022FD0AC8
:105AB00044EA47540A3002D500200146E9E70105CF
:105AC00010196941DDE9084500196941BDE8F04D4B
:105AD000A2E72DE9FE4F804681EA0300C00F0C4685
